{
  "_format": "hh-sol-artifact-1",
  "contractName": "BridgeWithZKP",
  "sourceName": "contracts/BridgeWithZKP.sol",
  "abi": [
    {
      "inputs": [
        {
          "internalType": "address",
          "name": "_verifier",
          "type": "address"
        }
      ],
      "stateMutability": "nonpayable",
      "type": "constructor"
    },
    {
      "anonymous": false,
      "inputs": [
        {
          "indexed": false,
          "internalType": "uint256",
          "name": "amount",
          "type": "uint256"
        },
        {
          "indexed": true,
          "internalType": "bytes32",
          "name": "commitment",
          "type": "bytes32"
        },
        {
          "indexed": false,
          "internalType": "uint256",
          "name": "timestamp",
          "type": "uint256"
        }
      ],
      "name": "DepositCreated",
      "type": "event"
    },
    {
      "anonymous": false,
      "inputs": [
        {
          "indexed": true,
          "internalType": "address",
          "name": "previousOwner",
          "type": "address"
        },
        {
          "indexed": true,
          "internalType": "address",
          "name": "newOwner",
          "type": "address"
        }
      ],
      "name": "OwnershipTransferred",
      "type": "event"
    },
    {
      "anonymous": false,
      "inputs": [
        {
          "indexed": true,
          "internalType": "address",
          "name": "recipient",
          "type": "address"
        },
        {
          "indexed": false,
          "internalType": "uint256",
          "name": "amount",
          "type": "uint256"
        }
      ],
      "name": "WithdrawalCompleted",
      "type": "event"
    },
    {
      "anonymous": false,
      "inputs": [
        {
          "indexed": true,
          "internalType": "bytes32",
          "name": "intentHash",
          "type": "bytes32"
        },
        {
          "indexed": false,
          "internalType": "uint256",
          "name": "blockNumber",
          "type": "uint256"
        }
      ],
      "name": "WithdrawalIntentSubmitted",
      "type": "event"
    },
    {
      "stateMutability": "payable",
      "type": "fallback"
    },
    {
      "inputs": [],
      "name": "WITHDRAWAL_DELAY",
      "outputs": [
        {
          "internalType": "uint256",
          "name": "",
          "type": "uint256"
        }
      ],
      "stateMutability": "view",
      "type": "function"
    },
    {
      "inputs": [
        {
          "internalType": "uint256",
          "name": "amount",
          "type": "uint256"
        },
        {
          "internalType": "address payable",
          "name": "recipient",
          "type": "address"
        },
        {
          "internalType": "bytes32",
          "name": "nullifierHash",
          "type": "bytes32"
        },
        {
          "internalType": "bytes",
          "name": "proof",
          "type": "bytes"
        },
        {
          "internalType": "bytes32",
          "name": "secret",
          "type": "bytes32"
        }
      ],
      "name": "completeWithdrawal",
      "outputs": [],
      "stateMutability": "nonpayable",
      "type": "function"
    },
    {
      "inputs": [
        {
          "internalType": "bytes32",
          "name": "commitment",
          "type": "bytes32"
        }
      ],
      "name": "deposit",
      "outputs": [],
      "stateMutability": "payable",
      "type": "function"
    },
    {
      "inputs": [
        {
          "internalType": "bytes32",
          "name": "",
          "type": "bytes32"
        }
      ],
      "name": "deposits",
      "outputs": [
        {
          "internalType": "uint256",
          "name": "amount",
          "type": "uint256"
        },
        {
          "internalType": "bytes32",
          "name": "commitment",
          "type": "bytes32"
        },
        {
          "internalType": "bool",
          "name": "withdrawn",
          "type": "bool"
        }
      ],
      "stateMutability": "view",
      "type": "function"
    },
    {
      "inputs": [],
      "name": "emergencyWithdraw",
      "outputs": [],
      "stateMutability": "nonpayable",
      "type": "function"
    },
    {
      "inputs": [],
      "name": "getBalance",
      "outputs": [
        {
          "internalType": "uint256",
          "name": "",
          "type": "uint256"
        }
      ],
      "stateMutability": "view",
      "type": "function"
    },
    {
      "inputs": [
        {
          "internalType": "bytes32",
          "name": "",
          "type": "bytes32"
        }
      ],
      "name": "nullifierHashes",
      "outputs": [
        {
          "internalType": "bool",
          "name": "",
          "type": "bool"
        }
      ],
      "stateMutability": "view",
      "type": "function"
    },
    {
      "inputs": [],
      "name": "owner",
      "outputs": [
        {
          "internalType": "address",
          "name": "",
          "type": "address"
        }
      ],
      "stateMutability": "view",
      "type": "function"
    },
    {
      "inputs": [],
      "name": "renounceOwnership",
      "outputs": [],
      "stateMutability": "nonpayable",
      "type": "function"
    },
    {
      "inputs": [
        {
          "internalType": "bytes32",
          "name": "intentHash",
          "type": "bytes32"
        }
      ],
      "name": "submitWithdrawalIntent",
      "outputs": [],
      "stateMutability": "nonpayable",
      "type": "function"
    },
    {
      "inputs": [
        {
          "internalType": "address",
          "name": "newOwner",
          "type": "address"
        }
      ],
      "name": "transferOwnership",
      "outputs": [],
      "stateMutability": "nonpayable",
      "type": "function"
    },
    {
      "inputs": [],
      "name": "verifier",
      "outputs": [
        {
          "internalType": "contract IVerifier",
          "name": "",
          "type": "address"
        }
      ],
      "stateMutability": "view",
      "type": "function"
    },
    {
      "inputs": [
        {
          "internalType": "bytes32",
          "name": "",
          "type": "bytes32"
        }
      ],
      "name": "withdrawalIntents",
      "outputs": [
        {
          "internalType": "uint256",
          "name": "",
          "type": "uint256"
        }
      ],
      "stateMutability": "view",
      "type": "function"
    },
    {
      "stateMutability": "payable",
      "type": "receive"
    }
  ],
  "bytecode": "0x60806040523480156200001157600080fd5b5060405162001dab38038062001dab8339818101604052810190620000379190620001df565b60016000819055506200005f62000053620000a760201b60201c565b620000af60201b60201c565b80600560006101000a81548173ffffffffffffffffffffffffffffffffffffffff021916908373ffffffffffffffffffffffffffffffffffffffff1602179055505062000211565b600033905090565b6000600160009054906101000a900473ffffffffffffffffffffffffffffffffffffffff16905081600160006101000a81548173ffffffffffffffffffffffffffffffffffffffff021916908373ffffffffffffffffffffffffffffffffffffffff1602179055508173ffffffffffffffffffffffffffffffffffffffff168173ffffffffffffffffffffffffffffffffffffffff167f8be0079c531659141344cd1fd0a4f28419497f9722a3daafe3b4186f6b6457e060405160405180910390a35050565b600080fd5b600073ffffffffffffffffffffffffffffffffffffffff82169050919050565b6000620001a7826200017a565b9050919050565b620001b9816200019a565b8114620001c557600080fd5b50565b600081519050620001d981620001ae565b92915050565b600060208284031215620001f857620001f762000175565b5b60006200020884828501620001c8565b91505092915050565b611b8a80620002216000396000f3fe6080604052600436106100c65760003560e01c80633d4dff7b1161007f578063b214faa511610059578063b214faa514610274578063db2e21bc14610290578063f2c0a183146102a7578063f2fde38b146102d0576100cd565b80633d4dff7b146101f3578063715018a6146102325780638da5cb5b14610249576100cd565b80630ebb172a146100cf57806312065fe0146100fa578063151c600d1461012557806317cc915c1461014e5780632b7ac3f31461018b5780632c4f8cb6146101b6576100cd565b366100cd57005b005b3480156100db57600080fd5b506100e46102f9565b6040516100f19190610ca1565b60405180910390f35b34801561010657600080fd5b5061010f6102fe565b60405161011c9190610ca1565b60405180910390f35b34801561013157600080fd5b5061014c60048036038101906101479190610df5565b610306565b005b34801561015a57600080fd5b5061017560048036038101906101709190610e8f565b6106d5565b6040516101829190610ed7565b60405180910390f35b34801561019757600080fd5b506101a06106f5565b6040516101ad9190610f51565b60405180910390f35b3480156101c257600080fd5b506101dd60048036038101906101d89190610e8f565b61071b565b6040516101ea9190610ca1565b60405180910390f35b3480156101ff57600080fd5b5061021a60048036038101906102159190610e8f565b610733565b60405161022993929190610f7b565b60405180910390f35b34801561023e57600080fd5b5061024761076a565b005b34801561025557600080fd5b5061025e61077e565b60405161026b9190610fd3565b60405180910390f35b61028e60048036038101906102899190610e8f565b6107a8565b005b34801561029c57600080fd5b506102a56108f9565b005b3480156102b357600080fd5b506102ce60048036038101906102c99190610e8f565b6109b7565b005b3480156102dc57600080fd5b506102f760048036038101906102f2919061101a565b610a60565b005b600a81565b600047905090565b61030e610ae3565b6000868686846040516020016103279493929190611056565b6040516020818303038152906040528051906020012090506000600460008381526020019081526020016000205411610395576040517f08c379a000000000000000000000000000000000000000000000000000000000815260040161038c906110f8565b60405180910390fd5b600a60046000838152602001908152602001600020546103b59190611147565b4310156103f7576040517f08c379a00000000000000000000000000000000000000000000000000000000081526004016103ee906111c7565b60405180910390fd5b6003600086815260200190815260200160002060009054906101000a900460ff1615610458576040517f08c379a000000000000000000000000000000000000000000000000000000000815260040161044f90611233565b60405180910390fd5b8647101561049b576040517f08c379a00000000000000000000000000000000000000000000000000000000081526004016104929061129f565b60405180910390fd5b60008060008087878101906104b091906114ad565b9350935093509350600560009054906101000a900473ffffffffffffffffffffffffffffffffffffffff1673ffffffffffffffffffffffffffffffffffffffff1663f5c9d69e858585856040518563ffffffff1660e01b815260040161051994939291906116bf565b602060405180830381865afa158015610536573d6000803e3d6000fd5b505050506040513d601f19601f8201168201806040525081019061055a9190611732565b610599576040517f08c379a0000000000000000000000000000000000000000000000000000000008152600401610590906117ab565b60405180910390fd5b6001600360008b815260200190815260200160002060006101000a81548160ff02191690831515021790555060008a73ffffffffffffffffffffffffffffffffffffffff168c6040516105eb906117fc565b60006040518083038185875af1925050503d8060008114610628576040519150601f19603f3d011682016040523d82523d6000602084013e61062d565b606091505b5050905080610671576040517f08c379a00000000000000000000000000000000000000000000000000000000081526004016106689061185d565b60405180910390fd5b8a73ffffffffffffffffffffffffffffffffffffffff167f1a39b9c5044b9f0ff56c5951e30c1ebe24911353aafcceb9250e83a24fe158c48d6040516106b79190610ca1565b60405180910390a25050505050506106cd610b32565b505050505050565b60036020528060005260406000206000915054906101000a900460ff1681565b600560009054906101000a900473ffffffffffffffffffffffffffffffffffffffff1681565b60046020528060005260406000206000915090505481565b60026020528060005260406000206000915090508060000154908060010154908060020160009054906101000a900460ff16905083565b610772610b3c565b61077c6000610bba565b565b6000600160009054906101000a900473ffffffffffffffffffffffffffffffffffffffff16905090565b6107b0610ae3565b600034116107f3576040517f08c379a00000000000000000000000000000000000000000000000000000000081526004016107ea906118c9565b60405180910390fd5b600060026000838152602001908152602001600020600001541461084c576040517f08c379a000000000000000000000000000000000000000000000000000000000815260040161084390611935565b60405180910390fd5b60405180606001604052803481526020018281526020016000151581525060026000838152602001908152602001600020600082015181600001556020820151816001015560408201518160020160006101000a81548160ff021916908315150217905550905050807f84c9b5892699baa30ad080fc24f45554618a0beab78141db9bc6e85bcca8802b34426040516108e6929190611955565b60405180910390a26108f6610b32565b50565b610901610b3c565b600061090b61077e565b73ffffffffffffffffffffffffffffffffffffffff164760405161092e906117fc565b60006040518083038185875af1925050503d806000811461096b576040519150601f19603f3d011682016040523d82523d6000602084013e610970565b606091505b50509050806109b4576040517f08c379a00000000000000000000000000000000000000000000000000000000081526004016109ab9061185d565b60405180910390fd5b50565b6000600460008381526020019081526020016000205414610a0d576040517f08c379a0000000000000000000000000000000000000000000000000000000008152600401610a04906119ca565b60405180910390fd5b436004600083815260200190815260200160002081905550807f3bd2f1b4d268c4bb38d1ad612407ce8493dacff6c489a41e2726e74d6161fb5b43604051610a559190610ca1565b60405180910390a250565b610a68610b3c565b600073ffffffffffffffffffffffffffffffffffffffff168173ffffffffffffffffffffffffffffffffffffffff1603610ad7576040517f08c379a0000000000000000000000000000000000000000000000000000000008152600401610ace90611a5c565b60405180910390fd5b610ae081610bba565b50565b600260005403610b28576040517f08c379a0000000000000000000000000000000000000000000000000000000008152600401610b1f90611ac8565b60405180910390fd5b6002600081905550565b6001600081905550565b610b44610c80565b73ffffffffffffffffffffffffffffffffffffffff16610b6261077e565b73ffffffffffffffffffffffffffffffffffffffff1614610bb8576040517f08c379a0000000000000000000000000000000000000000000000000000000008152600401610baf90611b34565b60405180910390fd5b565b6000600160009054906101000a900473ffffffffffffffffffffffffffffffffffffffff16905081600160006101000a81548173ffffffffffffffffffffffffffffffffffffffff021916908373ffffffffffffffffffffffffffffffffffffffff1602179055508173ffffffffffffffffffffffffffffffffffffffff168173ffffffffffffffffffffffffffffffffffffffff167f8be0079c531659141344cd1fd0a4f28419497f9722a3daafe3b4186f6b6457e060405160405180910390a35050565b600033905090565b6000819050919050565b610c9b81610c88565b82525050565b6000602082019050610cb66000830184610c92565b92915050565b6000604051905090565b600080fd5b600080fd5b610cd981610c88565b8114610ce457600080fd5b50565b600081359050610cf681610cd0565b92915050565b600073ffffffffffffffffffffffffffffffffffffffff82169050919050565b6000610d2782610cfc565b9050919050565b610d3781610d1c565b8114610d4257600080fd5b50565b600081359050610d5481610d2e565b92915050565b6000819050919050565b610d6d81610d5a565b8114610d7857600080fd5b50565b600081359050610d8a81610d64565b92915050565b600080fd5b600080fd5b600080fd5b60008083601f840112610db557610db4610d90565b5b8235905067ffffffffffffffff811115610dd257610dd1610d95565b5b602083019150836001820283011115610dee57610ded610d9a565b5b9250929050565b60008060008060008060a08789031215610e1257610e11610cc6565b5b6000610e2089828a01610ce7565b9650506020610e3189828a01610d45565b9550506040610e4289828a01610d7b565b945050606087013567ffffffffffffffff811115610e6357610e62610ccb565b5b610e6f89828a01610d9f565b93509350506080610e8289828a01610d7b565b9150509295509295509295565b600060208284031215610ea557610ea4610cc6565b5b6000610eb384828501610d7b565b91505092915050565b60008115159050919050565b610ed181610ebc565b82525050565b6000602082019050610eec6000830184610ec8565b92915050565b6000819050919050565b6000610f17610f12610f0d84610cfc565b610ef2565b610cfc565b9050919050565b6000610f2982610efc565b9050919050565b6000610f3b82610f1e565b9050919050565b610f4b81610f30565b82525050565b6000602082019050610f666000830184610f42565b92915050565b610f7581610d5a565b82525050565b6000606082019050610f906000830186610c92565b610f9d6020830185610f6c565b610faa6040830184610ec8565b949350505050565b6000610fbd82610cfc565b9050919050565b610fcd81610fb2565b82525050565b6000602082019050610fe86000830184610fc4565b92915050565b610ff781610fb2565b811461100257600080fd5b50565b60008135905061101481610fee565b92915050565b6000602082840312156110305761102f610cc6565b5b600061103e84828501611005565b91505092915050565b61105081610d1c565b82525050565b600060808201905061106b6000830187610c92565b6110786020830186611047565b6110856040830185610f6c565b6110926060830184610f6c565b95945050505050565b600082825260208201905092915050565b7f4e6f20696e74656e7420666f756e640000000000000000000000000000000000600082015250565b60006110e2600f8361109b565b91506110ed826110ac565b602082019050919050565b60006020820190508181036000830152611111816110d5565b9050919050565b7f4e487b7100000000000000000000000000000000000000000000000000000000600052601160045260246000fd5b600061115282610c88565b915061115d83610c88565b925082820190508082111561117557611174611118565b5b92915050565b7f5761697420666f722064656c6179000000000000000000000000000000000000600082015250565b60006111b1600e8361109b565b91506111bc8261117b565b602082019050919050565b600060208201905081810360008301526111e0816111a4565b9050919050565b7f416c72656164792077697468647261776e000000000000000000000000000000600082015250565b600061121d60118361109b565b9150611228826111e7565b602082019050919050565b6000602082019050818103600083015261124c81611210565b9050919050565b7f496e73756666696369656e742066756e64730000000000000000000000000000600082015250565b600061128960128361109b565b915061129482611253565b602082019050919050565b600060208201905081810360008301526112b88161127c565b9050919050565b6000601f19601f8301169050919050565b7f4e487b7100000000000000000000000000000000000000000000000000000000600052604160045260246000fd5b611308826112bf565b810181811067ffffffffffffffff82111715611327576113266112d0565b5b80604052505050565b600061133a610cbc565b905061134682826112ff565b919050565b600067ffffffffffffffff821115611366576113656112d0565b5b602082029050919050565b600061138461137f8461134b565b611330565b9050806020840283018581111561139e5761139d610d9a565b5b835b818110156113c757806113b38882610ce7565b8452602084019350506020810190506113a0565b5050509392505050565b600082601f8301126113e6576113e5610d90565b5b60026113f3848285611371565b91505092915050565b600067ffffffffffffffff821115611417576114166112d0565b5b602082029050919050565b6000611435611430846113fc565b611330565b9050806040840283018581111561144f5761144e610d9a565b5b835b81811015611478578061146488826113d1565b845260208401935050604081019050611451565b5050509392505050565b600082601f83011261149757611496610d90565b5b60026114a4848285611422565b91505092915050565b60008060008061014085870312156114c8576114c7610cc6565b5b60006114d6878288016113d1565b94505060406114e787828801611482565b93505060c06114f8878288016113d1565b92505061010061150a878288016113d1565b91505092959194509250565b600060029050919050565b600081905092915050565b6000819050919050565b61153f81610c88565b82525050565b60006115518383611536565b60208301905092915050565b6000602082019050919050565b61157381611516565b61157d8184611521565b92506115888261152c565b8060005b838110156115b95781516115a08782611545565b96506115ab8361155d565b92505060018101905061158c565b505050505050565b600060029050919050565b600081905092915050565b6000819050919050565b600081905092915050565b6115f581611516565b6115ff81846115e1565b925061160a8261152c565b8060005b8381101561163b5781516116228782611545565b965061162d8361155d565b92505060018101905061160e565b505050505050565b600061164f83836115ec565b60408301905092915050565b6000602082019050919050565b611671816115c1565b61167b81846115cc565b9250611686826115d7565b8060005b838110156116b757815161169e8782611643565b96506116a98361165b565b92505060018101905061168a565b505050505050565b6000610140820190506116d5600083018761156a565b6116e26040830186611668565b6116ef60c083018561156a565b6116fd61010083018461156a565b95945050505050565b61170f81610ebc565b811461171a57600080fd5b50565b60008151905061172c81611706565b92915050565b60006020828403121561174857611747610cc6565b5b60006117568482850161171d565b91505092915050565b7f496e76616c69642070726f6f6600000000000000000000000000000000000000600082015250565b6000611795600d8361109b565b91506117a08261175f565b602082019050919050565b600060208201905081810360008301526117c481611788565b9050919050565b600081905092915050565b50565b60006117e66000836117cb565b91506117f1826117d6565b600082019050919050565b6000611807826117d9565b9150819050919050565b7f5472616e73666572206661696c65640000000000000000000000000000000000600082015250565b6000611847600f8361109b565b915061185282611811565b602082019050919050565b600060208201905081810360008301526118768161183a565b9050919050565b7f416d6f756e74206d7573742062652067726561746572207468616e2030000000600082015250565b60006118b3601d8361109b565b91506118be8261187d565b602082019050919050565b600060208201905081810360008301526118e2816118a6565b9050919050565b7f436f6d6d69746d656e7420657869737473000000000000000000000000000000600082015250565b600061191f60118361109b565b915061192a826118e9565b602082019050919050565b6000602082019050818103600083015261194e81611912565b9050919050565b600060408201905061196a6000830185610c92565b6119776020830184610c92565b9392505050565b7f496e74656e7420616c7265616479206578697374730000000000000000000000600082015250565b60006119b460158361109b565b91506119bf8261197e565b602082019050919050565b600060208201905081810360008301526119e3816119a7565b9050919050565b7f4f776e61626c653a206e6577206f776e657220697320746865207a65726f206160008201527f6464726573730000000000000000000000000000000000000000000000000000602082015250565b6000611a4660268361109b565b9150611a51826119ea565b604082019050919050565b60006020820190508181036000830152611a7581611a39565b9050919050565b7f5265656e7472616e637947756172643a207265656e7472616e742063616c6c00600082015250565b6000611ab2601f8361109b565b9150611abd82611a7c565b602082019050919050565b60006020820190508181036000830152611ae181611aa5565b9050919050565b7f4f776e61626c653a2063616c6c6572206973206e6f7420746865206f776e6572600082015250565b6000611b1e60208361109b565b9150611b2982611ae8565b602082019050919050565b60006020820190508181036000830152611b4d81611b11565b905091905056fea2646970667358221220e2953896db9258d624f157bed517d633c690f897b92d201172183ab65ab31a7d64736f6c63430008130033",
  "linkReferences": {},
  "deployedLinkReferences": {}
}