{
  "_format": "hh-sol-artifact-1",
  "contractName": "BridgeWithZKP",
  "sourceName": "contracts/BridgeWithZKP.sol",
  "abi": [
    {
      "inputs": [
        {
          "internalType": "address",
          "name": "_verifier",
          "type": "address"
        }
      ],
      "stateMutability": "nonpayable",
      "type": "constructor"
    },
    {
      "anonymous": false,
      "inputs": [
        {
          "indexed": false,
          "internalType": "uint256",
          "name": "amount",
          "type": "uint256"
        },
        {
          "indexed": true,
          "internalType": "bytes32",
          "name": "commitment",
          "type": "bytes32"
        },
        {
          "indexed": false,
          "internalType": "uint256",
          "name": "timestamp",
          "type": "uint256"
        }
      ],
      "name": "DepositCreated",
      "type": "event"
    },
    {
      "anonymous": false,
      "inputs": [
        {
          "indexed": true,
          "internalType": "address",
          "name": "previousOwner",
          "type": "address"
        },
        {
          "indexed": true,
          "internalType": "address",
          "name": "newOwner",
          "type": "address"
        }
      ],
      "name": "OwnershipTransferred",
      "type": "event"
    },
    {
      "anonymous": false,
      "inputs": [
        {
          "indexed": true,
          "internalType": "address",
          "name": "recipient",
          "type": "address"
        },
        {
          "indexed": false,
          "internalType": "uint256",
          "name": "amount",
          "type": "uint256"
        },
        {
          "indexed": true,
          "internalType": "bytes32",
          "name": "nullifierHash",
          "type": "bytes32"
        }
      ],
      "name": "WithdrawalExecuted",
      "type": "event"
    },
    {
      "stateMutability": "payable",
      "type": "fallback"
    },
    {
      "inputs": [
        {
          "internalType": "bytes32",
          "name": "commitment",
          "type": "bytes32"
        }
      ],
      "name": "deposit",
      "outputs": [],
      "stateMutability": "payable",
      "type": "function"
    },
    {
      "inputs": [
        {
          "internalType": "bytes32",
          "name": "",
          "type": "bytes32"
        }
      ],
      "name": "deposits",
      "outputs": [
        {
          "internalType": "uint256",
          "name": "amount",
          "type": "uint256"
        },
        {
          "internalType": "bytes32",
          "name": "commitment",
          "type": "bytes32"
        },
        {
          "internalType": "bool",
          "name": "withdrawn",
          "type": "bool"
        }
      ],
      "stateMutability": "view",
      "type": "function"
    },
    {
      "inputs": [],
      "name": "emergencyWithdraw",
      "outputs": [],
      "stateMutability": "nonpayable",
      "type": "function"
    },
    {
      "inputs": [],
      "name": "getBalance",
      "outputs": [
        {
          "internalType": "uint256",
          "name": "",
          "type": "uint256"
        }
      ],
      "stateMutability": "view",
      "type": "function"
    },
    {
      "inputs": [
        {
          "internalType": "bytes32",
          "name": "",
          "type": "bytes32"
        }
      ],
      "name": "nullifierHashes",
      "outputs": [
        {
          "internalType": "bool",
          "name": "",
          "type": "bool"
        }
      ],
      "stateMutability": "view",
      "type": "function"
    },
    {
      "inputs": [],
      "name": "owner",
      "outputs": [
        {
          "internalType": "address",
          "name": "",
          "type": "address"
        }
      ],
      "stateMutability": "view",
      "type": "function"
    },
    {
      "inputs": [],
      "name": "renounceOwnership",
      "outputs": [],
      "stateMutability": "nonpayable",
      "type": "function"
    },
    {
      "inputs": [
        {
          "internalType": "address",
          "name": "newOwner",
          "type": "address"
        }
      ],
      "name": "transferOwnership",
      "outputs": [],
      "stateMutability": "nonpayable",
      "type": "function"
    },
    {
      "inputs": [],
      "name": "verifier",
      "outputs": [
        {
          "internalType": "address",
          "name": "",
          "type": "address"
        }
      ],
      "stateMutability": "view",
      "type": "function"
    },
    {
      "inputs": [
        {
          "internalType": "uint256",
          "name": "amount",
          "type": "uint256"
        },
        {
          "internalType": "address payable",
          "name": "recipient",
          "type": "address"
        },
        {
          "internalType": "bytes32",
          "name": "nullifierHash",
          "type": "bytes32"
        },
        {
          "internalType": "bytes",
          "name": "proof",
          "type": "bytes"
        }
      ],
      "name": "withdraw",
      "outputs": [],
      "stateMutability": "nonpayable",
      "type": "function"
    },
    {
      "stateMutability": "payable",
      "type": "receive"
    }
  ],
  "bytecode": "0x60806040523480156200001157600080fd5b5060405162001597380380620015978339818101604052810190620000379190620001df565b60016000819055506200005f62000053620000a760201b60201c565b620000af60201b60201c565b80600460006101000a81548173ffffffffffffffffffffffffffffffffffffffff021916908373ffffffffffffffffffffffffffffffffffffffff1602179055505062000211565b600033905090565b6000600160009054906101000a900473ffffffffffffffffffffffffffffffffffffffff16905081600160006101000a81548173ffffffffffffffffffffffffffffffffffffffff021916908373ffffffffffffffffffffffffffffffffffffffff1602179055508173ffffffffffffffffffffffffffffffffffffffff168173ffffffffffffffffffffffffffffffffffffffff167f8be0079c531659141344cd1fd0a4f28419497f9722a3daafe3b4186f6b6457e060405160405180910390a35050565b600080fd5b600073ffffffffffffffffffffffffffffffffffffffff82169050919050565b6000620001a7826200017a565b9050919050565b620001b9816200019a565b8114620001c557600080fd5b50565b600081519050620001d981620001ae565b92915050565b600060208284031215620001f857620001f762000175565b5b60006200020884828501620001c8565b91505092915050565b61137680620002216000396000f3fe6080604052600436106100955760003560e01c8063715018a611610059578063715018a6146101995780638da5cb5b146101b0578063b214faa5146101db578063db2e21bc146101f7578063f2fde38b1461020e5761009c565b806312065fe01461009e57806317cc915c146100c95780632b7ac3f3146101065780633d4dff7b1461013157806366e78978146101705761009c565b3661009c57005b005b3480156100aa57600080fd5b506100b3610237565b6040516100c09190610a6a565b60405180910390f35b3480156100d557600080fd5b506100f060048036038101906100eb9190610ac5565b61023f565b6040516100fd9190610b0d565b60405180910390f35b34801561011257600080fd5b5061011b61025f565b6040516101289190610b69565b60405180910390f35b34801561013d57600080fd5b5061015860048036038101906101539190610ac5565b610285565b60405161016793929190610b93565b60405180910390f35b34801561017c57600080fd5b5061019760048036038101906101929190610c99565b6102bc565b005b3480156101a557600080fd5b506101ae6105dc565b005b3480156101bc57600080fd5b506101c56105f0565b6040516101d29190610b69565b60405180910390f35b6101f560048036038101906101f09190610ac5565b61061a565b005b34801561020357600080fd5b5061020c61076b565b005b34801561021a57600080fd5b5061023560048036038101906102309190610d4d565b610829565b005b600047905090565b60036020528060005260406000206000915054906101000a900460ff1681565b600460009054906101000a900473ffffffffffffffffffffffffffffffffffffffff1681565b60026020528060005260406000206000915090508060000154908060010154908060020160009054906101000a900460ff16905083565b6102c46108ac565b6003600084815260200190815260200160002060009054906101000a900460ff1615610325576040517f08c379a000000000000000000000000000000000000000000000000000000000815260040161031c90610dd7565b60405180910390fd5b84471015610368576040517f08c379a000000000000000000000000000000000000000000000000000000000815260040161035f90610e43565b60405180910390fd5b6000806000848481019061037c9190610e63565b9250925092508783146103c4576040517f08c379a00000000000000000000000000000000000000000000000000000000081526004016103bb90610f02565b60405180910390fd5b8173ffffffffffffffffffffffffffffffffffffffff168773ffffffffffffffffffffffffffffffffffffffff1614610432576040517f08c379a000000000000000000000000000000000000000000000000000000000815260040161042990610f6e565b60405180910390fd5b60008183604051602001610447929190610f8e565b6040516020818303038152906040528051906020012090508087146104a1576040517f08c379a000000000000000000000000000000000000000000000000000000000815260040161049890611003565b60405180910390fd5b60016003600089815260200190815260200160002060006101000a81548160ff02191690831515021790555060008873ffffffffffffffffffffffffffffffffffffffff168a6040516104f390611054565b60006040518083038185875af1925050503d8060008114610530576040519150601f19603f3d011682016040523d82523d6000602084013e610535565b606091505b5050905080610579576040517f08c379a0000000000000000000000000000000000000000000000000000000008152600401610570906110b5565b60405180910390fd5b878973ffffffffffffffffffffffffffffffffffffffff167fc53ffeca29f9767adfaf8fc4117dec73b3620a8cce4366b82ea830789593a4098c6040516105c09190610a6a565b60405180910390a350505050506105d56108fb565b5050505050565b6105e4610905565b6105ee6000610983565b565b6000600160009054906101000a900473ffffffffffffffffffffffffffffffffffffffff16905090565b6106226108ac565b60003411610665576040517f08c379a000000000000000000000000000000000000000000000000000000000815260040161065c90611121565b60405180910390fd5b60006002600083815260200190815260200160002060000154146106be576040517f08c379a00000000000000000000000000000000000000000000000000000000081526004016106b59061118d565b60405180910390fd5b60405180606001604052803481526020018281526020016000151581525060026000838152602001908152602001600020600082015181600001556020820151816001015560408201518160020160006101000a81548160ff021916908315150217905550905050807f84c9b5892699baa30ad080fc24f45554618a0beab78141db9bc6e85bcca8802b34426040516107589291906111ad565b60405180910390a26107686108fb565b50565b610773610905565b600061077d6105f0565b73ffffffffffffffffffffffffffffffffffffffff16476040516107a090611054565b60006040518083038185875af1925050503d80600081146107dd576040519150601f19603f3d011682016040523d82523d6000602084013e6107e2565b606091505b5050905080610826576040517f08c379a000000000000000000000000000000000000000000000000000000000815260040161081d906110b5565b60405180910390fd5b50565b610831610905565b600073ffffffffffffffffffffffffffffffffffffffff168173ffffffffffffffffffffffffffffffffffffffff16036108a0576040517f08c379a000000000000000000000000000000000000000000000000000000000815260040161089790611248565b60405180910390fd5b6108a981610983565b50565b6002600054036108f1576040517f08c379a00000000000000000000000000000000000000000000000000000000081526004016108e8906112b4565b60405180910390fd5b6002600081905550565b6001600081905550565b61090d610a49565b73ffffffffffffffffffffffffffffffffffffffff1661092b6105f0565b73ffffffffffffffffffffffffffffffffffffffff1614610981576040517f08c379a000000000000000000000000000000000000000000000000000000000815260040161097890611320565b60405180910390fd5b565b6000600160009054906101000a900473ffffffffffffffffffffffffffffffffffffffff16905081600160006101000a81548173ffffffffffffffffffffffffffffffffffffffff021916908373ffffffffffffffffffffffffffffffffffffffff1602179055508173ffffffffffffffffffffffffffffffffffffffff168173ffffffffffffffffffffffffffffffffffffffff167f8be0079c531659141344cd1fd0a4f28419497f9722a3daafe3b4186f6b6457e060405160405180910390a35050565b600033905090565b6000819050919050565b610a6481610a51565b82525050565b6000602082019050610a7f6000830184610a5b565b92915050565b600080fd5b600080fd5b6000819050919050565b610aa281610a8f565b8114610aad57600080fd5b50565b600081359050610abf81610a99565b92915050565b600060208284031215610adb57610ada610a85565b5b6000610ae984828501610ab0565b91505092915050565b60008115159050919050565b610b0781610af2565b82525050565b6000602082019050610b226000830184610afe565b92915050565b600073ffffffffffffffffffffffffffffffffffffffff82169050919050565b6000610b5382610b28565b9050919050565b610b6381610b48565b82525050565b6000602082019050610b7e6000830184610b5a565b92915050565b610b8d81610a8f565b82525050565b6000606082019050610ba86000830186610a5b565b610bb56020830185610b84565b610bc26040830184610afe565b949350505050565b610bd381610a51565b8114610bde57600080fd5b50565b600081359050610bf081610bca565b92915050565b6000610c0182610b28565b9050919050565b610c1181610bf6565b8114610c1c57600080fd5b50565b600081359050610c2e81610c08565b92915050565b600080fd5b600080fd5b600080fd5b60008083601f840112610c5957610c58610c34565b5b8235905067ffffffffffffffff811115610c7657610c75610c39565b5b602083019150836001820283011115610c9257610c91610c3e565b5b9250929050565b600080600080600060808688031215610cb557610cb4610a85565b5b6000610cc388828901610be1565b9550506020610cd488828901610c1f565b9450506040610ce588828901610ab0565b935050606086013567ffffffffffffffff811115610d0657610d05610a8a565b5b610d1288828901610c43565b92509250509295509295909350565b610d2a81610b48565b8114610d3557600080fd5b50565b600081359050610d4781610d21565b92915050565b600060208284031215610d6357610d62610a85565b5b6000610d7184828501610d38565b91505092915050565b600082825260208201905092915050565b7f4e756c6c696669657220616c7265616479207573656400000000000000000000600082015250565b6000610dc1601683610d7a565b9150610dcc82610d8b565b602082019050919050565b60006020820190508181036000830152610df081610db4565b9050919050565b7f496e73756666696369656e74206c697175696469747900000000000000000000600082015250565b6000610e2d601683610d7a565b9150610e3882610df7565b602082019050919050565b60006020820190508181036000830152610e5c81610e20565b9050919050565b600080600060608486031215610e7c57610e7b610a85565b5b6000610e8a86828701610be1565b9350506020610e9b86828701610c1f565b9250506040610eac86828701610ab0565b9150509250925092565b7f416d6f756e74206d69736d617463680000000000000000000000000000000000600082015250565b6000610eec600f83610d7a565b9150610ef782610eb6565b602082019050919050565b60006020820190508181036000830152610f1b81610edf565b9050919050565b7f556e617574686f72697a6564207769746864726177616c000000000000000000600082015250565b6000610f58601783610d7a565b9150610f6382610f22565b602082019050919050565b60006020820190508181036000830152610f8781610f4b565b9050919050565b6000604082019050610fa36000830185610b84565b610fb06020830184610b5a565b9392505050565b7f496e76616c6964206e756c6c6966696572000000000000000000000000000000600082015250565b6000610fed601183610d7a565b9150610ff882610fb7565b602082019050919050565b6000602082019050818103600083015261101c81610fe0565b9050919050565b600081905092915050565b50565b600061103e600083611023565b91506110498261102e565b600082019050919050565b600061105f82611031565b9150819050919050565b7f5472616e73666572206661696c65640000000000000000000000000000000000600082015250565b600061109f600f83610d7a565b91506110aa82611069565b602082019050919050565b600060208201905081810360008301526110ce81611092565b9050919050565b7f416d6f756e74206d7573742062652067726561746572207468616e2030000000600082015250565b600061110b601d83610d7a565b9150611116826110d5565b602082019050919050565b6000602082019050818103600083015261113a816110fe565b9050919050565b7f436f6d6d69746d656e7420616c72656164792065786973747300000000000000600082015250565b6000611177601983610d7a565b915061118282611141565b602082019050919050565b600060208201905081810360008301526111a68161116a565b9050919050565b60006040820190506111c26000830185610a5b565b6111cf6020830184610a5b565b9392505050565b7f4f776e61626c653a206e6577206f776e657220697320746865207a65726f206160008201527f6464726573730000000000000000000000000000000000000000000000000000602082015250565b6000611232602683610d7a565b915061123d826111d6565b604082019050919050565b6000602082019050818103600083015261126181611225565b9050919050565b7f5265656e7472616e637947756172643a207265656e7472616e742063616c6c00600082015250565b600061129e601f83610d7a565b91506112a982611268565b602082019050919050565b600060208201905081810360008301526112cd81611291565b9050919050565b7f4f776e61626c653a2063616c6c6572206973206e6f7420746865206f776e6572600082015250565b600061130a602083610d7a565b9150611315826112d4565b602082019050919050565b60006020820190508181036000830152611339816112fd565b905091905056fea2646970667358221220ea515daa64b9f09487db8548400b9452f364085839881cb3f68d261ee346b76b64736f6c63430008130033",
  "linkReferences": {},
  "deployedLinkReferences": {}
}