{
  "_format": "hh-sol-artifact-1",
  "contractName": "BridgeWithZKP",
  "sourceName": "contracts/BridgeWithZKP.sol",
  "abi": [
    {
      "inputs": [
        {
          "internalType": "address",
          "name": "_verifier",
          "type": "address"
        }
      ],
      "stateMutability": "nonpayable",
      "type": "constructor"
    },
    {
      "anonymous": false,
      "inputs": [
        {
          "indexed": false,
          "internalType": "uint256",
          "name": "amount",
          "type": "uint256"
        },
        {
          "indexed": true,
          "internalType": "bytes32",
          "name": "commitment",
          "type": "bytes32"
        },
        {
          "indexed": false,
          "internalType": "uint256",
          "name": "timestamp",
          "type": "uint256"
        }
      ],
      "name": "DepositCreated",
      "type": "event"
    },
    {
      "anonymous": false,
      "inputs": [
        {
          "indexed": true,
          "internalType": "address",
          "name": "previousOwner",
          "type": "address"
        },
        {
          "indexed": true,
          "internalType": "address",
          "name": "newOwner",
          "type": "address"
        }
      ],
      "name": "OwnershipTransferred",
      "type": "event"
    },
    {
      "anonymous": false,
      "inputs": [
        {
          "indexed": true,
          "internalType": "address",
          "name": "recipient",
          "type": "address"
        },
        {
          "indexed": false,
          "internalType": "uint256",
          "name": "amount",
          "type": "uint256"
        },
        {
          "indexed": true,
          "internalType": "bytes32",
          "name": "nullifierHash",
          "type": "bytes32"
        }
      ],
      "name": "WithdrawalExecuted",
      "type": "event"
    },
    {
      "stateMutability": "payable",
      "type": "fallback"
    },
    {
      "inputs": [
        {
          "internalType": "bytes32",
          "name": "commitment",
          "type": "bytes32"
        }
      ],
      "name": "deposit",
      "outputs": [],
      "stateMutability": "payable",
      "type": "function"
    },
    {
      "inputs": [
        {
          "internalType": "bytes32",
          "name": "",
          "type": "bytes32"
        }
      ],
      "name": "deposits",
      "outputs": [
        {
          "internalType": "uint256",
          "name": "amount",
          "type": "uint256"
        },
        {
          "internalType": "bytes32",
          "name": "commitment",
          "type": "bytes32"
        },
        {
          "internalType": "bool",
          "name": "withdrawn",
          "type": "bool"
        }
      ],
      "stateMutability": "view",
      "type": "function"
    },
    {
      "inputs": [],
      "name": "emergencyWithdraw",
      "outputs": [],
      "stateMutability": "nonpayable",
      "type": "function"
    },
    {
      "inputs": [],
      "name": "getBalance",
      "outputs": [
        {
          "internalType": "uint256",
          "name": "",
          "type": "uint256"
        }
      ],
      "stateMutability": "view",
      "type": "function"
    },
    {
      "inputs": [
        {
          "internalType": "bytes32",
          "name": "",
          "type": "bytes32"
        }
      ],
      "name": "nullifierHashes",
      "outputs": [
        {
          "internalType": "bool",
          "name": "",
          "type": "bool"
        }
      ],
      "stateMutability": "view",
      "type": "function"
    },
    {
      "inputs": [],
      "name": "owner",
      "outputs": [
        {
          "internalType": "address",
          "name": "",
          "type": "address"
        }
      ],
      "stateMutability": "view",
      "type": "function"
    },
    {
      "inputs": [],
      "name": "renounceOwnership",
      "outputs": [],
      "stateMutability": "nonpayable",
      "type": "function"
    },
    {
      "inputs": [
        {
          "internalType": "address",
          "name": "newOwner",
          "type": "address"
        }
      ],
      "name": "transferOwnership",
      "outputs": [],
      "stateMutability": "nonpayable",
      "type": "function"
    },
    {
      "inputs": [],
      "name": "verifier",
      "outputs": [
        {
          "internalType": "address",
          "name": "",
          "type": "address"
        }
      ],
      "stateMutability": "view",
      "type": "function"
    },
    {
      "inputs": [
        {
          "internalType": "uint256",
          "name": "amount",
          "type": "uint256"
        },
        {
          "internalType": "address payable",
          "name": "recipient",
          "type": "address"
        },
        {
          "internalType": "bytes32",
          "name": "nullifierHash",
          "type": "bytes32"
        },
        {
          "internalType": "bytes",
          "name": "proof",
          "type": "bytes"
        }
      ],
      "name": "withdraw",
      "outputs": [],
      "stateMutability": "nonpayable",
      "type": "function"
    },
    {
      "stateMutability": "payable",
      "type": "receive"
    }
  ],
  "bytecode": "0x60806040523480156200001157600080fd5b50604051620016a3380380620016a38339818101604052810190620000379190620001df565b60016000819055506200005f62000053620000a760201b60201c565b620000af60201b60201c565b80600460006101000a81548173ffffffffffffffffffffffffffffffffffffffff021916908373ffffffffffffffffffffffffffffffffffffffff1602179055505062000211565b600033905090565b6000600160009054906101000a900473ffffffffffffffffffffffffffffffffffffffff16905081600160006101000a81548173ffffffffffffffffffffffffffffffffffffffff021916908373ffffffffffffffffffffffffffffffffffffffff1602179055508173ffffffffffffffffffffffffffffffffffffffff168173ffffffffffffffffffffffffffffffffffffffff167f8be0079c531659141344cd1fd0a4f28419497f9722a3daafe3b4186f6b6457e060405160405180910390a35050565b600080fd5b600073ffffffffffffffffffffffffffffffffffffffff82169050919050565b6000620001a7826200017a565b9050919050565b620001b9816200019a565b8114620001c557600080fd5b50565b600081519050620001d981620001ae565b92915050565b600060208284031215620001f857620001f762000175565b5b60006200020884828501620001c8565b91505092915050565b61148280620002216000396000f3fe6080604052600436106100955760003560e01c8063715018a611610059578063715018a6146101995780638da5cb5b146101b0578063b214faa5146101db578063db2e21bc146101f7578063f2fde38b1461020e5761009c565b806312065fe01461009e57806317cc915c146100c95780632b7ac3f3146101065780633d4dff7b1461013157806366e78978146101705761009c565b3661009c57005b005b3480156100aa57600080fd5b506100b3610237565b6040516100c09190610af8565b60405180910390f35b3480156100d557600080fd5b506100f060048036038101906100eb9190610b53565b61023f565b6040516100fd9190610b9b565b60405180910390f35b34801561011257600080fd5b5061011b61025f565b6040516101289190610bf7565b60405180910390f35b34801561013d57600080fd5b5061015860048036038101906101539190610b53565b610285565b60405161016793929190610c21565b60405180910390f35b34801561017c57600080fd5b5061019760048036038101906101929190610d27565b6102bc565b005b3480156101a557600080fd5b506101ae6104e9565b005b3480156101bc57600080fd5b506101c56104fd565b6040516101d29190610bf7565b60405180910390f35b6101f560048036038101906101f09190610b53565b610527565b005b34801561020357600080fd5b5061020c610678565b005b34801561021a57600080fd5b5061023560048036038101906102309190610ddb565b610736565b005b600047905090565b60036020528060005260406000206000915054906101000a900460ff1681565b600460009054906101000a900473ffffffffffffffffffffffffffffffffffffffff1681565b60026020528060005260406000206000915090508060000154908060010154908060020160009054906101000a900460ff16905083565b6102c46107b9565b6003600084815260200190815260200160002060009054906101000a900460ff1615610325576040517f08c379a000000000000000000000000000000000000000000000000000000000815260040161031c90610e65565b60405180910390fd5b84471015610368576040517f08c379a000000000000000000000000000000000000000000000000000000000815260040161035f90610ed1565b60405180910390fd5b610373828285610808565b6103b2576040517f08c379a00000000000000000000000000000000000000000000000000000000081526004016103a990610f3d565b60405180910390fd5b60016003600085815260200190815260200160002060006101000a81548160ff02191690831515021790555060008473ffffffffffffffffffffffffffffffffffffffff168660405161040490610f8e565b60006040518083038185875af1925050503d8060008114610441576040519150601f19603f3d011682016040523d82523d6000602084013e610446565b606091505b505090508061048a576040517f08c379a000000000000000000000000000000000000000000000000000000000815260040161048190610fef565b60405180910390fd5b838573ffffffffffffffffffffffffffffffffffffffff167fc53ffeca29f9767adfaf8fc4117dec73b3620a8cce4366b82ea830789593a409886040516104d19190610af8565b60405180910390a3506104e2610989565b5050505050565b6104f1610993565b6104fb6000610a11565b565b6000600160009054906101000a900473ffffffffffffffffffffffffffffffffffffffff16905090565b61052f6107b9565b60003411610572576040517f08c379a00000000000000000000000000000000000000000000000000000000081526004016105699061105b565b60405180910390fd5b60006002600083815260200190815260200160002060000154146105cb576040517f08c379a00000000000000000000000000000000000000000000000000000000081526004016105c2906110c7565b60405180910390fd5b60405180606001604052803481526020018281526020016000151581525060026000838152602001908152602001600020600082015181600001556020820151816001015560408201518160020160006101000a81548160ff021916908315150217905550905050807f84c9b5892699baa30ad080fc24f45554618a0beab78141db9bc6e85bcca8802b34426040516106659291906110e7565b60405180910390a2610675610989565b50565b610680610993565b600061068a6104fd565b73ffffffffffffffffffffffffffffffffffffffff16476040516106ad90610f8e565b60006040518083038185875af1925050503d80600081146106ea576040519150601f19603f3d011682016040523d82523d6000602084013e6106ef565b606091505b5050905080610733576040517f08c379a000000000000000000000000000000000000000000000000000000000815260040161072a90610fef565b60405180910390fd5b50565b61073e610993565b600073ffffffffffffffffffffffffffffffffffffffff168173ffffffffffffffffffffffffffffffffffffffff16036107ad576040517f08c379a00000000000000000000000000000000000000000000000000000000081526004016107a490611182565b60405180910390fd5b6107b681610a11565b50565b6002600054036107fe576040517f08c379a00000000000000000000000000000000000000000000000000000000081526004016107f5906111ee565b60405180910390fd5b6002600081905550565b6000806000600460009054906101000a900473ffffffffffffffffffffffffffffffffffffffff1673ffffffffffffffffffffffffffffffffffffffff1686868660405160240161085b9392919061126c565b6040516020818303038152906040527f1858cb5b000000000000000000000000000000000000000000000000000000007bffffffffffffffffffffffffffffffffffffffffffffffffffffffff19166020820180517bffffffffffffffffffffffffffffffffffffffffffffffffffffffff83818316178352505050506040516108e59190611304565b600060405180830381855afa9150503d8060008114610920576040519150601f19603f3d011682016040523d82523d6000602084013e610925565b606091505b50915091508161096a576040517f08c379a000000000000000000000000000000000000000000000000000000000815260040161096190611367565b60405180910390fd5b8080602001905181019061097e91906113b3565b925050509392505050565b6001600081905550565b61099b610ad7565b73ffffffffffffffffffffffffffffffffffffffff166109b96104fd565b73ffffffffffffffffffffffffffffffffffffffff1614610a0f576040517f08c379a0000000000000000000000000000000000000000000000000000000008152600401610a069061142c565b60405180910390fd5b565b6000600160009054906101000a900473ffffffffffffffffffffffffffffffffffffffff16905081600160006101000a81548173ffffffffffffffffffffffffffffffffffffffff021916908373ffffffffffffffffffffffffffffffffffffffff1602179055508173ffffffffffffffffffffffffffffffffffffffff168173ffffffffffffffffffffffffffffffffffffffff167f8be0079c531659141344cd1fd0a4f28419497f9722a3daafe3b4186f6b6457e060405160405180910390a35050565b600033905090565b6000819050919050565b610af281610adf565b82525050565b6000602082019050610b0d6000830184610ae9565b92915050565b600080fd5b600080fd5b6000819050919050565b610b3081610b1d565b8114610b3b57600080fd5b50565b600081359050610b4d81610b27565b92915050565b600060208284031215610b6957610b68610b13565b5b6000610b7784828501610b3e565b91505092915050565b60008115159050919050565b610b9581610b80565b82525050565b6000602082019050610bb06000830184610b8c565b92915050565b600073ffffffffffffffffffffffffffffffffffffffff82169050919050565b6000610be182610bb6565b9050919050565b610bf181610bd6565b82525050565b6000602082019050610c0c6000830184610be8565b92915050565b610c1b81610b1d565b82525050565b6000606082019050610c366000830186610ae9565b610c436020830185610c12565b610c506040830184610b8c565b949350505050565b610c6181610adf565b8114610c6c57600080fd5b50565b600081359050610c7e81610c58565b92915050565b6000610c8f82610bb6565b9050919050565b610c9f81610c84565b8114610caa57600080fd5b50565b600081359050610cbc81610c96565b92915050565b600080fd5b600080fd5b600080fd5b60008083601f840112610ce757610ce6610cc2565b5b8235905067ffffffffffffffff811115610d0457610d03610cc7565b5b602083019150836001820283011115610d2057610d1f610ccc565b5b9250929050565b600080600080600060808688031215610d4357610d42610b13565b5b6000610d5188828901610c6f565b9550506020610d6288828901610cad565b9450506040610d7388828901610b3e565b935050606086013567ffffffffffffffff811115610d9457610d93610b18565b5b610da088828901610cd1565b92509250509295509295909350565b610db881610bd6565b8114610dc357600080fd5b50565b600081359050610dd581610daf565b92915050565b600060208284031215610df157610df0610b13565b5b6000610dff84828501610dc6565b91505092915050565b600082825260208201905092915050565b7f4e756c6c696669657220616c7265616479207573656400000000000000000000600082015250565b6000610e4f601683610e08565b9150610e5a82610e19565b602082019050919050565b60006020820190508181036000830152610e7e81610e42565b9050919050565b7f496e73756666696369656e74206c697175696469747900000000000000000000600082015250565b6000610ebb601683610e08565b9150610ec682610e85565b602082019050919050565b60006020820190508181036000830152610eea81610eae565b9050919050565b7f496e76616c69642070726f6f6600000000000000000000000000000000000000600082015250565b6000610f27600d83610e08565b9150610f3282610ef1565b602082019050919050565b60006020820190508181036000830152610f5681610f1a565b9050919050565b600081905092915050565b50565b6000610f78600083610f5d565b9150610f8382610f68565b600082019050919050565b6000610f9982610f6b565b9150819050919050565b7f5472616e73666572206661696c65640000000000000000000000000000000000600082015250565b6000610fd9600f83610e08565b9150610fe482610fa3565b602082019050919050565b6000602082019050818103600083015261100881610fcc565b9050919050565b7f416d6f756e74206d7573742062652067726561746572207468616e2030000000600082015250565b6000611045601d83610e08565b91506110508261100f565b602082019050919050565b6000602082019050818103600083015261107481611038565b9050919050565b7f436f6d6d69746d656e7420616c72656164792065786973747300000000000000600082015250565b60006110b1601983610e08565b91506110bc8261107b565b602082019050919050565b600060208201905081810360008301526110e0816110a4565b9050919050565b60006040820190506110fc6000830185610ae9565b6111096020830184610ae9565b9392505050565b7f4f776e61626c653a206e6577206f776e657220697320746865207a65726f206160008201527f6464726573730000000000000000000000000000000000000000000000000000602082015250565b600061116c602683610e08565b915061117782611110565b604082019050919050565b6000602082019050818103600083015261119b8161115f565b9050919050565b7f5265656e7472616e637947756172643a207265656e7472616e742063616c6c00600082015250565b60006111d8601f83610e08565b91506111e3826111a2565b602082019050919050565b60006020820190508181036000830152611207816111cb565b9050919050565b600082825260208201905092915050565b82818337600083830152505050565b6000601f19601f8301169050919050565b600061124b838561120e565b935061125883858461121f565b6112618361122e565b840190509392505050565b6000604082019050818103600083015261128781858761123f565b90506112966020830184610c12565b949350505050565b600081519050919050565b60005b838110156112c75780820151818401526020810190506112ac565b60008484015250505050565b60006112de8261129e565b6112e88185610f5d565b93506112f88185602086016112a9565b80840191505092915050565b600061131082846112d3565b915081905092915050565b7f56657269666965722063616c6c206661696c6564000000000000000000000000600082015250565b6000611351601483610e08565b915061135c8261131b565b602082019050919050565b6000602082019050818103600083015261138081611344565b9050919050565b61139081610b80565b811461139b57600080fd5b50565b6000815190506113ad81611387565b92915050565b6000602082840312156113c9576113c8610b13565b5b60006113d78482850161139e565b91505092915050565b7f4f776e61626c653a2063616c6c6572206973206e6f7420746865206f776e6572600082015250565b6000611416602083610e08565b9150611421826113e0565b602082019050919050565b6000602082019050818103600083015261144581611409565b905091905056fea26469706673582212208c9d56bc5a592b3270dc180eec5e30157feb650bec050107b5d0c803d127d96b64736f6c63430008130033",
  "linkReferences": {},
  "deployedLinkReferences": {}
}