{
  "_format": "hh-sol-artifact-1",
  "contractName": "TokenSwap",
  "sourceName": "contracts/TokenSwap.sol",
  "abi": [
    {
      "inputs": [],
      "stateMutability": "nonpayable",
      "type": "constructor"
    },
    {
      "anonymous": false,
      "inputs": [
        {
          "indexed": true,
          "internalType": "address",
          "name": "previousOwner",
          "type": "address"
        },
        {
          "indexed": true,
          "internalType": "address",
          "name": "newOwner",
          "type": "address"
        }
      ],
      "name": "OwnershipTransferred",
      "type": "event"
    },
    {
      "anonymous": false,
      "inputs": [
        {
          "indexed": true,
          "internalType": "address",
          "name": "user",
          "type": "address"
        },
        {
          "indexed": true,
          "internalType": "address",
          "name": "tokenIn",
          "type": "address"
        },
        {
          "indexed": true,
          "internalType": "address",
          "name": "tokenOut",
          "type": "address"
        },
        {
          "indexed": false,
          "internalType": "uint256",
          "name": "amountIn",
          "type": "uint256"
        },
        {
          "indexed": false,
          "internalType": "uint256",
          "name": "amountOut",
          "type": "uint256"
        }
      ],
      "name": "SwapExecuted",
      "type": "event"
    },
    {
      "inputs": [
        {
          "internalType": "address",
          "name": "",
          "type": "address"
        }
      ],
      "name": "allowedTokens",
      "outputs": [
        {
          "internalType": "bool",
          "name": "",
          "type": "bool"
        }
      ],
      "stateMutability": "view",
      "type": "function"
    },
    {
      "inputs": [
        {
          "internalType": "address",
          "name": "tokenIn",
          "type": "address"
        },
        {
          "internalType": "address",
          "name": "tokenOut",
          "type": "address"
        },
        {
          "internalType": "uint256",
          "name": "amountIn",
          "type": "uint256"
        }
      ],
      "name": "calculateAmountOut",
      "outputs": [
        {
          "internalType": "uint256",
          "name": "",
          "type": "uint256"
        }
      ],
      "stateMutability": "view",
      "type": "function"
    },
    {
      "inputs": [
        {
          "internalType": "address",
          "name": "token",
          "type": "address"
        }
      ],
      "name": "emergencyWithdraw",
      "outputs": [],
      "stateMutability": "nonpayable",
      "type": "function"
    },
    {
      "inputs": [
        {
          "internalType": "address",
          "name": "tokenIn",
          "type": "address"
        },
        {
          "internalType": "address",
          "name": "tokenOut",
          "type": "address"
        },
        {
          "internalType": "uint256",
          "name": "amountIn",
          "type": "uint256"
        }
      ],
      "name": "getSwapQuote",
      "outputs": [
        {
          "internalType": "uint256",
          "name": "",
          "type": "uint256"
        }
      ],
      "stateMutability": "view",
      "type": "function"
    },
    {
      "inputs": [],
      "name": "owner",
      "outputs": [
        {
          "internalType": "address",
          "name": "",
          "type": "address"
        }
      ],
      "stateMutability": "view",
      "type": "function"
    },
    {
      "inputs": [],
      "name": "renounceOwnership",
      "outputs": [],
      "stateMutability": "nonpayable",
      "type": "function"
    },
    {
      "inputs": [
        {
          "internalType": "address",
          "name": "token",
          "type": "address"
        },
        {
          "internalType": "bool",
          "name": "allowed",
          "type": "bool"
        }
      ],
      "name": "setAllowedToken",
      "outputs": [],
      "stateMutability": "nonpayable",
      "type": "function"
    },
    {
      "inputs": [
        {
          "internalType": "address",
          "name": "tokenIn",
          "type": "address"
        },
        {
          "internalType": "address",
          "name": "tokenOut",
          "type": "address"
        },
        {
          "internalType": "uint256",
          "name": "amountIn",
          "type": "uint256"
        },
        {
          "internalType": "uint256",
          "name": "minAmountOut",
          "type": "uint256"
        },
        {
          "internalType": "uint256",
          "name": "deadline",
          "type": "uint256"
        }
      ],
      "name": "swap",
      "outputs": [],
      "stateMutability": "nonpayable",
      "type": "function"
    },
    {
      "inputs": [
        {
          "internalType": "address",
          "name": "newOwner",
          "type": "address"
        }
      ],
      "name": "transferOwnership",
      "outputs": [],
      "stateMutability": "nonpayable",
      "type": "function"
    }
  ],
  "bytecode": "0x608060405234801561001057600080fd5b50600160008190555061003561002a61003a60201b60201c565b61004260201b60201c565b610108565b600033905090565b6000600160009054906101000a900473ffffffffffffffffffffffffffffffffffffffff16905081600160006101000a81548173ffffffffffffffffffffffffffffffffffffffff021916908373ffffffffffffffffffffffffffffffffffffffff1602179055508173ffffffffffffffffffffffffffffffffffffffff168173ffffffffffffffffffffffffffffffffffffffff167f8be0079c531659141344cd1fd0a4f28419497f9722a3daafe3b4186f6b6457e060405160405180910390a35050565b6110c5806101176000396000f3fe608060405234801561001057600080fd5b50600436106100935760003560e01c80638845a263116100665780638845a2631461010a5780638aaa22841461013a5780638da5cb5b14610156578063e744092e14610174578063f2fde38b146101a457610093565b806342606771146100985780636ff1c9bc146100c8578063715018a6146100e45780637a950f99146100ee575b600080fd5b6100b260048036038101906100ad91906109fa565b6101c0565b6040516100bf9190610a5c565b60405180910390f35b6100e260048036038101906100dd9190610a77565b6101d6565b005b6100ec6102e6565b005b61010860048036038101906101039190610aa4565b6102fa565b005b610124600480360381019061011f91906109fa565b610680565b6040516101319190610a5c565b60405180910390f35b610154600480360381019061014f9190610b57565b61068c565b005b61015e6106ef565b60405161016b9190610ba6565b60405180910390f35b61018e60048036038101906101899190610a77565b610719565b60405161019b9190610bd0565b60405180910390f35b6101be60048036038101906101b99190610a77565b610739565b005b60006101cd848484610680565b90509392505050565b6101de6107bc565b60008173ffffffffffffffffffffffffffffffffffffffff166370a08231306040518263ffffffff1660e01b81526004016102199190610ba6565b602060405180830381865afa158015610236573d6000803e3d6000fd5b505050506040513d601f19601f8201168201806040525081019061025a9190610c00565b90508173ffffffffffffffffffffffffffffffffffffffff1663a9059cbb6102806106ef565b836040518363ffffffff1660e01b815260040161029e929190610c2d565b6020604051808303816000875af11580156102bd573d6000803e3d6000fd5b505050506040513d601f19601f820116820180604052508101906102e19190610c6b565b505050565b6102ee6107bc565b6102f8600061083a565b565b610302610900565b80421115610345576040517f08c379a000000000000000000000000000000000000000000000000000000000815260040161033c90610cf5565b60405180910390fd5b600260008673ffffffffffffffffffffffffffffffffffffffff1673ffffffffffffffffffffffffffffffffffffffff16815260200190815260200160002060009054906101000a900460ff166103d1576040517f08c379a00000000000000000000000000000000000000000000000000000000081526004016103c890610d61565b60405180910390fd5b600260008573ffffffffffffffffffffffffffffffffffffffff1673ffffffffffffffffffffffffffffffffffffffff16815260200190815260200160002060009054906101000a900460ff1661045d576040517f08c379a000000000000000000000000000000000000000000000000000000000815260040161045490610dcd565b60405180910390fd5b600083116104a0576040517f08c379a000000000000000000000000000000000000000000000000000000000815260040161049790610e39565b60405180910390fd5b8473ffffffffffffffffffffffffffffffffffffffff166323b872dd3330866040518463ffffffff1660e01b81526004016104dd93929190610e59565b6020604051808303816000875af11580156104fc573d6000803e3d6000fd5b505050506040513d601f19601f820116820180604052508101906105209190610c6b565b50600061052e868686610680565b905082811015610573576040517f08c379a000000000000000000000000000000000000000000000000000000000815260040161056a90610edc565b60405180910390fd5b8473ffffffffffffffffffffffffffffffffffffffff1663a9059cbb33836040518363ffffffff1660e01b81526004016105ae929190610c2d565b6020604051808303816000875af11580156105cd573d6000803e3d6000fd5b505050506040513d601f19601f820116820180604052508101906105f19190610c6b565b508473ffffffffffffffffffffffffffffffffffffffff168673ffffffffffffffffffffffffffffffffffffffff163373ffffffffffffffffffffffffffffffffffffffff167f764f0dc063c06f32d89a3f3af80c0db4be8a090901f589a478b447e0a51f09f18785604051610668929190610efc565b60405180910390a45061067961094f565b5050505050565b60008190509392505050565b6106946107bc565b80600260008473ffffffffffffffffffffffffffffffffffffffff1673ffffffffffffffffffffffffffffffffffffffff16815260200190815260200160002060006101000a81548160ff0219169083151502179055505050565b6000600160009054906101000a900473ffffffffffffffffffffffffffffffffffffffff16905090565b60026020528060005260406000206000915054906101000a900460ff1681565b6107416107bc565b600073ffffffffffffffffffffffffffffffffffffffff168173ffffffffffffffffffffffffffffffffffffffff16036107b0576040517f08c379a00000000000000000000000000000000000000000000000000000000081526004016107a790610f97565b60405180910390fd5b6107b98161083a565b50565b6107c4610959565b73ffffffffffffffffffffffffffffffffffffffff166107e26106ef565b73ffffffffffffffffffffffffffffffffffffffff1614610838576040517f08c379a000000000000000000000000000000000000000000000000000000000815260040161082f90611003565b60405180910390fd5b565b6000600160009054906101000a900473ffffffffffffffffffffffffffffffffffffffff16905081600160006101000a81548173ffffffffffffffffffffffffffffffffffffffff021916908373ffffffffffffffffffffffffffffffffffffffff1602179055508173ffffffffffffffffffffffffffffffffffffffff168173ffffffffffffffffffffffffffffffffffffffff167f8be0079c531659141344cd1fd0a4f28419497f9722a3daafe3b4186f6b6457e060405160405180910390a35050565b600260005403610945576040517f08c379a000000000000000000000000000000000000000000000000000000000815260040161093c9061106f565b60405180910390fd5b6002600081905550565b6001600081905550565b600033905090565b600080fd5b600073ffffffffffffffffffffffffffffffffffffffff82169050919050565b600061099182610966565b9050919050565b6109a181610986565b81146109ac57600080fd5b50565b6000813590506109be81610998565b92915050565b6000819050919050565b6109d7816109c4565b81146109e257600080fd5b50565b6000813590506109f4816109ce565b92915050565b600080600060608486031215610a1357610a12610961565b5b6000610a21868287016109af565b9350506020610a32868287016109af565b9250506040610a43868287016109e5565b9150509250925092565b610a56816109c4565b82525050565b6000602082019050610a716000830184610a4d565b92915050565b600060208284031215610a8d57610a8c610961565b5b6000610a9b848285016109af565b91505092915050565b600080600080600060a08688031215610ac057610abf610961565b5b6000610ace888289016109af565b9550506020610adf888289016109af565b9450506040610af0888289016109e5565b9350506060610b01888289016109e5565b9250506080610b12888289016109e5565b9150509295509295909350565b60008115159050919050565b610b3481610b1f565b8114610b3f57600080fd5b50565b600081359050610b5181610b2b565b92915050565b60008060408385031215610b6e57610b6d610961565b5b6000610b7c858286016109af565b9250506020610b8d85828601610b42565b9150509250929050565b610ba081610986565b82525050565b6000602082019050610bbb6000830184610b97565b92915050565b610bca81610b1f565b82525050565b6000602082019050610be56000830184610bc1565b92915050565b600081519050610bfa816109ce565b92915050565b600060208284031215610c1657610c15610961565b5b6000610c2484828501610beb565b91505092915050565b6000604082019050610c426000830185610b97565b610c4f6020830184610a4d565b9392505050565b600081519050610c6581610b2b565b92915050565b600060208284031215610c8157610c80610961565b5b6000610c8f84828501610c56565b91505092915050565b600082825260208201905092915050565b7f5377617020657870697265640000000000000000000000000000000000000000600082015250565b6000610cdf600c83610c98565b9150610cea82610ca9565b602082019050919050565b60006020820190508181036000830152610d0e81610cd2565b9050919050565b7f546f6b656e20696e206e6f7420616c6c6f776564000000000000000000000000600082015250565b6000610d4b601483610c98565b9150610d5682610d15565b602082019050919050565b60006020820190508181036000830152610d7a81610d3e565b9050919050565b7f546f6b656e206f7574206e6f7420616c6c6f7765640000000000000000000000600082015250565b6000610db7601583610c98565b9150610dc282610d81565b602082019050919050565b60006020820190508181036000830152610de681610daa565b9050919050565b7f416d6f756e74206d7573742062652067726561746572207468616e2030000000600082015250565b6000610e23601d83610c98565b9150610e2e82610ded565b602082019050919050565b60006020820190508181036000830152610e5281610e16565b9050919050565b6000606082019050610e6e6000830186610b97565b610e7b6020830185610b97565b610e886040830184610a4d565b949350505050565b7f496e73756666696369656e74206f757470757420616d6f756e74000000000000600082015250565b6000610ec6601a83610c98565b9150610ed182610e90565b602082019050919050565b60006020820190508181036000830152610ef581610eb9565b9050919050565b6000604082019050610f116000830185610a4d565b610f1e6020830184610a4d565b9392505050565b7f4f776e61626c653a206e6577206f776e657220697320746865207a65726f206160008201527f6464726573730000000000000000000000000000000000000000000000000000602082015250565b6000610f81602683610c98565b9150610f8c82610f25565b604082019050919050565b60006020820190508181036000830152610fb081610f74565b9050919050565b7f4f776e61626c653a2063616c6c6572206973206e6f7420746865206f776e6572600082015250565b6000610fed602083610c98565b9150610ff882610fb7565b602082019050919050565b6000602082019050818103600083015261101c81610fe0565b9050919050565b7f5265656e7472616e637947756172643a207265656e7472616e742063616c6c00600082015250565b6000611059601f83610c98565b915061106482611023565b602082019050919050565b600060208201905081810360008301526110888161104c565b905091905056fea2646970667358221220cc3eb52630b031ae6b98d719e1e9ad9050bc2ef3bd619ad7fde6b090af3f67c464736f6c63430008130033",
  "linkReferences": {},
  "deployedLinkReferences": {}
}