{
  "_format": "hh-sol-artifact-1",
  "contractName": "TestVerifier",
  "sourceName": "contracts/TestVerifier.sol",
  "abi": [
    {
      "inputs": [
        {
          "internalType": "bytes",
          "name": "proof",
          "type": "bytes"
        },
        {
          "internalType": "bytes32",
          "name": "nullifierHash",
          "type": "bytes32"
        }
      ],
      "name": "verifyProof",
      "outputs": [
        {
          "internalType": "bool",
          "name": "",
          "type": "bool"
        }
      ],
      "stateMutability": "pure",
      "type": "function"
    }
  ],
  "bytecode": "0x608060405234801561001057600080fd5b506101de806100206000396000f3fe608060405234801561001057600080fd5b506004361061002b5760003560e01c80631858cb5b14610030575b600080fd5b61004a60048036038101906100459190610112565b610060565b604051610057919061018d565b60405180910390f35b6000600190509392505050565b600080fd5b600080fd5b600080fd5b600080fd5b600080fd5b60008083601f84011261009c5761009b610077565b5b8235905067ffffffffffffffff8111156100b9576100b861007c565b5b6020830191508360018202830111156100d5576100d4610081565b5b9250929050565b6000819050919050565b6100ef816100dc565b81146100fa57600080fd5b50565b60008135905061010c816100e6565b92915050565b60008060006040848603121561012b5761012a61006d565b5b600084013567ffffffffffffffff81111561014957610148610072565b5b61015586828701610086565b93509350506020610168868287016100fd565b9150509250925092565b60008115159050919050565b61018781610172565b82525050565b60006020820190506101a2600083018461017e565b9291505056fea2646970667358221220b05aa93f040c00dd9d63ee4a10937c6cc5ce83a8ebc8040c7c8c6abc5cb1f45264736f6c63430008130033",
  "linkReferences": {},
  "deployedLinkReferences": {}
}